:0300000002089E55
:10089E0078FFE4F6D8FD9000007F007E04E4F0A31C
:0A08AE00DFFCDEFA75816D0208F32D
:100DF300120C26120E2F75865A120CEE120ECD12FD
:0E0E03000AD21206C91209C51205A980E922F9
:100C2600758E7075E50775E669758E3075F159E450
:100C3600F58075F92675F2E275900175FA057591DC
:100C46001075F3FEF5A0F5FB75C89175CDE575CC6D
:100C5600F575CBE575CAF5D2AD43D44075D60875A2
:0B0C66009E0175D283120A51D2AF220A
:100CEE00300D2CC20D120EB6786C06E6D39415405C
:100CFE000276157860E6600616E67002D290D20A89
:100D0E00120E74120D79120C71120E9A120DA4227B
:100E74007863E6D39400400A16E67006D2067864D6
:030E8400760122D2
:100D7900D37866E6940018E69400401E08E6161833
:100D89007001167866E61846701020070D20080ACB
:0B0D9900200007200204786376FA2295
:100C71007868E6D39400403D16E67039C206786480
:100C8100F67863F67865F608F6300118D200D204DA
:100C9100C2927837E6D3947D5005C281C29222D2A6
:100CA10081C29222C200C28120020A2007072008C5
:060CB10004786376FA22CC
:100E9A007869E6600116786AE6C39428500106224A
:03002B00020ED7EB
:080ED70030C604C2C6D20D3280
:0A0EC200C182C183016910016A2892
:0A0ECD00120E49200003120BCC2284
:100E490030870A200110D201786876102230010615
:070E5900C201786876102247
:100BCC0020943520030878697610D2038030786938
:100BDC00E6702BC20308F6300224C2067864F6785D
:100BEC0063F67865F608F6C20220001220070F2083
:100BFC00080C786376FA8006E47869F6C203786AA2
:100C0C00E6B42815200212D202C292C206E478641D
:0A0C1C00F67863F67865F608F62214
:100AD200E5097004050980021509300672C206781C
:100AE20064E66401706920945F30805C208759203D
:100AF2000756200853C292C281F5D2C285C29C20F9
:100B0200AF054387028007C2AF438702D2AFD29CB0
:100B1200120EAA30862F120E878F09E50960207502
:100B2200080A120E87EFB509061508E50870F3E505
:100B320008600480CA800E30820B120DCF8006300E
:0F0B42008203120DCF75D283E47864F61876FA29
:010B51002281
:100E8700E47819F6E580548046F6E590541046F666
:020E9700E6FF74
:010E99002236
:100DCF00300510C205E47862F6D2907860F608F626
:100DDF007867F6C29078607629D205E408F608F6AF
:040DEF007867F62209
:100E6000300510C205E47862F6D2907860F608F694
:040E70007867F62287
:100DA400300527786706E6C394C8401EE4F67861E8
:100DB40006E694174014E4F60806E694014005E4B8
:0B0DC400F6C20522C29078607629225A
:1006C900786CE6641460030207DFC207784EE6D34C
:1006D900940050030207DB7852E6645E703C08E63A
:1006E90064A17036D28512043A308206785CE644F9
:1006F90010F67954E778552608260826082608268C
:100709000826082608260826795EF7E47863F6782D
:1007190065F608F6120D4D0207DB7852E6647C7027
:100729003D08E664837037D28512043A7954E77834
:1007390055260826082608260826082608260826F3
:100749000826795EF7308205C282120E11E47863B9
:10075900F67865F608F6120D4D120E60807478521F
:10076900E6645C706308E664A3705DD285783CE654
:10077900FC08E6FDE41201397B007A80793B783F79
:1007890012002E1201727850A60608A60712043A22
:10079900785CE64410F67954E77855260826082649
:1007A900082608260826082608260826795EF7203E
:1007B9008205D282120E11E47863F67865F608F69E
:1007C900120D4D120DCF800A200007200204786314
:0707D90076FAE4784EF622E7
:1009C500200A03020A50C20A20094275D289120779
:1009D500E0783BE675F002A4243EF9E4FAFBF50B5A
:1009E500750C00750D3B7839E6F50E08E6F50F1226
:1009F50000037B007A00793E120CB7783CA6060806
:100A0500A607D209E5D554FC4403F5D52275D28352
:100A15001207E07833E675F002A42422F9E4FAFB24
:100A2500F50B750C00750D337839E6F50E08E6F50E
:100A35000F1200037B007A007922120CB77834A6D6
:0C0A45000608A607D20BC20953D5FC22FC
:1005A900E4F508200B030206C8C20B7834E6FE08FE
:1005B900E6FF7839A60608A6077E027FA47D871282
:1005C9000B527814A607E69003B2937837F6200009
:1005D9000302067E309224E6C394584019E6D39468
:1005E900895013783206E6C3946450030206C8E4BE
:1005F900F6C292D28122E47832F6227837E6D39491
:10060900554005E6948C4011783206E6C39464504F
:10061900030206C8D281D29222E47832F6308124CC
:100629007837E6D3947A5017E6C3946240111806D6
:10063900E6946450030206C8E4F6C281C29222E439
:100649007836F6227837E6C394584006E6D3945FA5
:10065900400E7837E6C3947D4016E6D3948950104E
:10066900783606E6C394644056E4F6D281C29222F3
:10067900E47836F6223002473092237837E6C3947D
:100689004E4016E6D394895010783206E6C3946436
:10069900402DE4F6C292C28122E47832F6227837FC
:1006A900E6D3944B4005E6948C4010783206E6C3B5
:0F06B9009464400BE4F6D292D28122E47832F6B8
:0106C800220F
:1007E000E4781AF608F674FF08F608F6E47839F6A5
:1007F00008F67819F67819E6C39412507743D24078
:10080000E5D230E5FB53D2DFAFD3781E760008A6E1
:1008100007791FE7C4F8540FC868F719E7C454F004
:1008200048F7E5D4540F781F26F618E436F6E6FEAE
:1008300008E6783A26F618EE36F6C309E7781D96EC
:1008400019E71896500E781EE6FE08E6FF781CA6FB
:100850000608A607D3791FE7781B9619E718964074
:100860000E781EE6FE08E6FF781AA60608A60778A8
:1008700019068081C3783AE6791D97F618E619972C
:10088000F6C308E61997F618E61997F67939E7C41A
:0D089000F854F0C868F709E7C4540F48F7A2
:01089D002238
:10000300E50E850FF012026BAB0BAA0CA90D740160
:1000130012020C1201F3C394084004E412022E22CC
:100CB700E4F508F509FFEFC394085018120240AC99
:100CC700F02509F509EC3508F508740229F9E43A25
:100CD700FA0F80E2E509AE087803CEC313CE13D826
:060CE700F9F5098E08FF7B
:010CED0022E4
:040B52008E098F0A6F
:100B5600D20EE4F50BA905300E69E9250BFFE43347
:100B6600C313EF13FC850A8285098375F00212020E
:100B760098E493FE740193D3783A96EE1896403231
:100B8600850A8285098375F002EC120298E58224B3
:100B9600FEF582E58334FFF583E493FE740193D377
:100BA6000896EE18964003EC7004C20E80A9A904BC
:100BB60080A5ED14FFECC39F40050CC20E80988CF7
:050BC6000B8094AF0458
:010BCB002207
:100A51007915E7781066702909E70866702309E7B8
:100A61000866701D09E7086670177C0F7DA08D82EE
:100A71008C8393FFB45504D2828006EFB4AA02C2DC
:100A8100827C0F7DC08D828C83E493FF7815F60DF7
:100A9100ED70010C05828C83E493FF08F60DED7077
:100AA100010C05828C83E493FF08F60DED70010CB7
:100AB10005828C83E49308F67815E67810F67816AB
:100AC100E67811F67817E67812F67818E67813F6D4
:010AD1002202
:100E110030820575085580037508AA7597085395A2
:0D0E21000F4395A075960F43950A75945ADE
:010E2E0022A1
:10043A007852E6F47854F6E408F608F67915E7787F
:10044A001066701209E70866700C09E708667006FC
:10045A0009E708666003120A51E47857F608F608B5
:10046A00F608F67818E6FFC454F0FF18E6FEC454FE
:10047A000F4F785746F67817E6FFC454F0FF18E690
:10048A00FEC4540F4F785846F67816E6FFC454F067
:10049A00FF18E6FEC4540F4F785946F67815E6FF62
:1004AA00C454F0785A46F6E408F67837E6D3944B03
:1004BA005006E4785FF6805B7837E6D3944B400CBD
:1004CA00E6D394555006785F760180477837E6D3AD
:1004DA009455400CE6D3945F5006785F76028033D9
:1004EA007837E6D3945F400CE6D3947D5006785F64
:1004FA007603801F7837E6D3947D400BE6948C50C0
:10050A0006785F7604800C7837E6C3948C400478CA
:10051A005F7605D37835E694A018E6940F500BC39E
:10052A0008E6946418E694005004785F7603785FCE
:10053A00E6FFC454F0785B46F6E408F6200004E6C9
:10054A004480F6783CE6FC08E6FDE41201397B00BB
:10055A007A80793B783F12002E1201727819A6062A
:10056A0008A607D37951E79619E71896401B09E7B9
:10057A000896FF19E71896FED3EF9432EE940040DE
:10058A0008785CE654DFF68006785CE64420F67864
:0E059A0019E6540F785C46F6781AE6785DF69E
:0105A8002230
:0B0EAA00E4FFEFC3940A50030F80F731
:010EB500221A
:1002A40000DC00E200E900F000F600FE0105010CAC
:1002B4000114011C0125012D0136013F01490152A0
:1002C400015C01670171017C0188019301A001AC0B
:1002D40001B901C601D401E201F10200020F021FBB
:1002E400023002400252026402760289029D02B187
:1002F40002C602DB02F10308031F0337034F03693D
:100304000382039D03B803D403F0040E042B044AB0
:10031400046A048A04AB04CC04EE051105350559BE
:10032400057E05A305C905F0061806400668069172
:1003340006BB06E5070F073A0766079207BE07EAFA
:10034400081708430870089E08CB08F809250952C5
:10035400097F09AC09D90A060A320A5E0A8C0AB76F
:100364000ADF0B0A0B330B5D0B850BAD0BD40BFBB8
:100374000C210C460C6B0C8E0CB10CD30CF40D152B
:100384000D340D530D710D8E0DAA0DC50DE00DF933
:100394000E120E2A0E410E570E6C0E810E950EA8EB
:1003A4000EBA0ECC0EDC0EED0EFC0F0B0F19B9B805
:1003B400B7B6B5B4B3B2B1B0AFAEADACABAAA9A841
:1003C400A7A6A5A4A3A2A1A09F9E9D9C9B9A999831
:1003D40097969594939291908F8E8D8C8B8A898821
:1003E40087868584838281807F7E7D7C7B7A797811
:1003F40077767574737271706F6E6D6C6B6A696801
:1004040067666564636261605F5E5D5C5B5A5958F0
:1004140057565554535251504F4E4D4C4B4A4948E0
:1004240047464544434241403F3E3D3C3B3A3938D0
:0604340037363534333287
:100E2F0043F92053F9BFD29FD29ED29C53877FD2D2
:0A0E3F00DF75BA0375AACCD2AC220D
:020D1E00AE071E
:100D2000E4FDFCFBAC06EDC394085014EC30E0018C
:100D30000B7801AF04EF08800123D8FDFC0D80E69D
:0C0D4000EB30E004C29B8002D29B8E9935
:010D4C002284
:0300230002093897
:10093800C0E0C0F0C083C082C0D075D000C000C085
:0D09480001C002C003C004C005C006C00706
:10095500E4FEFDFC309846C298AD99EEC39408506C
:1009650014ED30E0010C7801AF05EF08800123D8C4
:10097500FDFD0E80E6309A010CEC30E020784EE665
:10098500062452F8A605786C7600D207C20678646C
:1009950076007863760078657600087600309905EC
:0509A500C299120D4D86
:1009AA00D007D006D005D004D003D002D001D000A1
:0B09BA00D0D0D082D083D0F0D0E0324B
:100D4D00786BE6C3940B500FD208E62454F8E6FFF7
:100D5D00120D1E786B0622786D7602E4786BF6C262
:0C0D6D0008200007200204786376FA22B8
:0C0EB600786DE6600616E67002C2852228
:0A0FF600FFFFFFFFFFFFF65AA5AE54
:10002E00EC4D6011E8497017ED33EC3304600DE4CC
:10003E00FCFFFEFD22E933E8330470F80201DE1204
:10004E0001A958046009E4CC248150062850090205
:10005E0001E82840030201E5C0E0EB4A7044B98094
:10006E0006D0E0FB0201D4EF4E701CBD8008EBFF02
:10007E00EAFEE9FD80EBE98DF0A4FEE5F002011742
:10008E00E9CDF9EAFEEBFFEF89F0A4FCE5F0CE89AD
:10009E00F0A42EFFE435F0CD89F0A42DFEE435F06A
:1000AE008067EF4E7005BD80D780C3EF8BF0A4AC98
:1000BE00F0EE8BF0A42CFCE435F0F8EF8AF0A42CD3
:1000CE00E5F038FCE433CB8DF0A42CFCE5F03BF8E6
:1000DE00EE8AF0A42CFCE5F038F8E433CF89F0A4D6
:1000EE002CFCE5F038CF3400CE89F0A42FFFE5F0DC
:1000FE003EFEE433C98DF0A42EFEE5F039CD8AF034
:10010E00A42FFFE5F03EFEE43DFD33D0E0FB5007AB
:10011E000BBB000F0201E8EC2CFCEF33FFEE33FEBD
:06012E00ED33FD0201C0EB
:1001340075F020800E75F010800575F0087D007E46
:10014400007F003392D530D50312028AEC3340107D
:10015400EF33FFEE33FEED33FDEC33FCD5F0ED224F
:0E016400E5F0247EA2D513CC92E7CDCEFF228B
:10017200EDD2E7CD33EC3392D524814006E4FFFE85
:10018200FDFC22FCE4CFCECDCC24E0501174FF80E4
:10019200EDC3CC13CCCD13CDCE13CECF13CF047081
:0701A200F030D5DE02028AF5
:1001A900E9D2E7C933E833F892D5EDD2E7CD33EC9C
:0701B90033FC5002B2D52215
:1001C000EC30E7100FBF000C0EBE00080DBD0004A0
:1001D0000BEB6014A2D5EB13FCED92E7FD2274FF4C
:1001E000FCFDFEFF22E480F8A2D574FF13FC7D80A5
:0301F000E480EFB9
:1008B800020DF3E493A3F8E493A34003F68001F256
:1008C80008DFF48029E493A3F85407240CC8C33341
:1008D800C4540F4420C8834004F456800146F6DF10
:1008E800E4800B0102040810204080900EC2E47ED0
:1008F800019360BCA3FF543F30E509541FFEE49305
:10090800A360010ECF54C025E060A840B8E493A3CB
:10091800FAE493A3F8E493A3C8C582C8CAC583CAF6
:10092800F0A3C8C582C8CAC583CADFE9DEE780BEAE
:010ECC000025
:1001F300BB010689828A83E0225002E722BBFE020A
:09020300E32289828A83E493223C
:10020C00BB010989828A83F8E028F022500327F782
:10021C0022BBFE05F8E328F3228A838982F8E49353
:02022C00282286
:10022E00BB010689828A83F0225002F722BBFE01AF
:02023E00F322A9
:10024000BB010A89828A83E0F5F0A3E02250068789
:10025000F009E71922BBFE07E3F5F009E31922894B
:0B026000828A83E493F5F0740193227E
:10026B00BB010A89828A83F0E5F0A3F0225006F7DE
:0F027B0009A7F01922BBFE06F3E5F009F31922DB
:0E028A00C3E49FFFE49EFEE49DFDE49CFC2285
:0C029800A42582F582E5F03583F5832271
:00000001FF
